:100000000C9466010C9497010C9497010C94970141
:100010000C9497010C9497010C9497010C94970100
:100020000C9497010C9405090C9405090C9405098E
:100030000C9497010C9497010C9497010C949701E0
:100040000C9497010C940B0A0C9497010C94970153
:100050000C9497010C9497010C9497010C94BB0895
:100060000C9497010C9485080C945B080C949701F0
:100070000C9497010C9497010C9497010C949701A0
:100080000C94DD090C9497010C9497010C94970142
:100090000C9497010C9497010C9497010C94970180
:1000A0000C9497010C9497010C94AF090C94970150
:1000B0000C9497010C9497010C9497010C9481096E
:1000C0000C9497010C9497010C9497010C94970150
:1000D0000C9497010C9497010C9497010C94970140
:1000E0000C9497010C949A010C94DA030C94F80187
:1000F0000C945D040C94EA010C9453040C942E05AA
:100100000C9438030C9435040C94D0100C94D10446
:100110000C9454030C9419030C94CB030C943403E7
:100120000C94A7050C9442030C9446050C94F6031A
:100130000C942E030C9446030C9424030C947D021F
:100140000C9403030C942A030C943F040C941C0499
:100150000C9408040C94D2040C94B9040C94490433
:100160000C94E4030C94540A0C942B040C94300269
:100170000C94EE030C94C7010C94FE020C94C30380
:100180000C94D6010C9450030C9421030C9412048B
:100190000C94FE030C94D0030C944A030C943C037F
:1001A0000C941D030C94150300002100240027006B
:1001B0002A002D0030003300010100000401070176
:1001C0000A0100000A0B02090C0D0E0807030401C6
:1001D000000000000000000000000000000000001F
:1001E00000000000000000000000000000001211EC
:1001F00010000000000000000000000000000000EF
:100200000000000000000000000020002300260085
:1002100029002C002F00320000010000030106011C
:10022000090100002200250028002B002E003100CB
:10023000340002010000050108010B010505050558
:10024000070508080808020202020A0A080804044E
:10025000040401010101010101010303030303037C
:100260000303040707070C0C0C0C0C0C0C0C02020B
:10027000020206060606060606060B0B0B0B0B0B08
:100280000B0B010210202008081020401020408095
:10029000020102010804020101020408102040804A
:1002A00080402010080402018004020180402010D8
:1002B0000804020108040201010204081020408021
:1002C0000102040810204080540AD01011241FBEDF
:1002D000CFEFD1E2DEBFCDBF00E00CBF12E0A0E067
:1002E000B2E0E2E0F8E200E00BBF02C007900D923E
:1002F000AA34B107D9F724E0AAE4B2E001C01D9204
:10030000AA31B207E1F711E0C5E6D1E000E006C08E
:1003100021970109802FFE010E94AF11C436D10739
:1003200080E00807A9F70E941C0B0C94EF130C94B3
:1003300000000895AF92BF92CF92DF92EF92FF92AA
:100340000F931F93CF93DF936C017B018B01040FFD
:10035000151FEB015E01AE18BF08C017D10759F099
:100360006991D601ED91FC910190F081E02DC601DB
:100370001995892B79F7C501DF91CF911F910F91C5
:10038000FF90EF90DF90CF90BF90AF900895FC0169
:10039000538D448D252F30E0842F90E0821B930BEA
:1003A000541710F0CF96089501970895FC01918D90
:1003B000828D981761F0A28DAE0FBF2FB11D5D9693
:1003C0008C91928D9F5F9F73928F90E008958FEF35
:1003D0009FEF0895FC01918D828D981731F0828DE9
:1003E000E80FF11D858D90E008958FEF9FEF089540
:1003F000FC01918D228D892F90E0805C9F4F821BA4
:1004000091098F739927089582E493E00E94F8017F
:1004100021E0892B09F420E0822F0895FC01A48DAE
:10042000A80FB92FB11DA35ABF4F2C91848D90E016
:1004300001968F739927848FA689B7892C93A089F9
:10044000B1898C91837080648C93938D848D981383
:1004500006C00288F389E02D80818F7D8083089516
:10046000EF92FF920F931F93CF93DF93EC0181E004
:10047000888F9B8D8C8D98131AC0E889F9898081AB
:1004800085FF15C09FB7F894EE89FF896083E889DE
:10049000F98980818370806480839FBF81E090E0D0
:1004A000DF91CF911F910F91FF90EF900895F62E5D
:1004B0000B8D10E00F5F1F4F0F731127E02E8C8DF7
:1004C0008E110CC00FB607FCFACFE889F98980813C
:1004D00085FFF5CFCE010E940E02F1CFEB8DEC0F20
:1004E000FD2FF11DE35AFF4FF0829FB7F8940B8F59
:1004F000EA89FB8980818062CFCFCF93DF93EC01C3
:10050000888D8823B9F0AA89BB89E889F9898C91FB
:1005100085FD03C0808186FD0DC00FB607FCF7CFB7
:100520008C9185FFF2CF808185FFEDCFCE010E94B7
:100530000E02E9CFDF91CF91089580E090E0892B02
:1005400029F00E94040281110E94000080E090E0E6
:10055000892B49F080E090E0892B29F00E9400006F
:1005600081110E94000080E090E0892B49F080E03A
:1005700090E0892B29F00E94000081110E94000068
:1005800080E090E0892B49F080E090E0892B29F011
:100590000E94000081110C9400000895282F30E083
:1005A000F901EE53FE4F9491F901EE57FD4F44913E
:1005B000245C3D4FF9012491222309F435C099238D
:1005C00011F191509231F8F4E92FF0E08827E451CD
:1005D000FD4F8F4F0C94AF111D032103FE02150335
:1005E0001903030324032A032E03340338033C03B3
:1005F0004203460303034A035003540380918000DF
:100600008F7780938000E22FF0E0EE0FFF1FEE5D0A
:10061000FD4FA591B4918FB7F894EC91611148C04A
:1006200040954E234C938FBF0895809180008F7D1D
:10063000E8CF80918000877FE4CF84B58F7784BD39
:10064000E2CF84B58F7DFBCF8091B0008F77809310
:10065000B000D9CF8091B0008F7DF9CF809190000C
:100660008F7780939000CFCF809190008F7DF9CFCE
:1006700080919000877FF5CF8091A0008F77809345
:10068000A000C1CF8091A0008F7DF9CF8091A00004
:10069000877FF5CF809120018F7780932001B3CFA2
:1006A000809120018F7DF9CF80912001877FF5CF48
:1006B0004E2BB8CFCF93DF9390E0FC01EE57FD4F68
:1006C0002491845C9D4FFC0184918823D1F090E0BB
:1006D000880F991FFC01E855FE4FA591B491FC01CC
:1006E000EE5DFD4FC591D49161110EC09FB7F89496
:1006F0008C91E22FE0958E238C932881E223E8836E
:100700009FBFDF91CF9108958FB7F894EC91E22BC2
:10071000EC938FBFF6CF1F93CF93DF93182FEB018E
:1007200061E00E945A03209739F460E0812FDF9145
:10073000CF911F910C94CE02CF3FD10511F461E00F
:10074000F5CFE12FF0E0EE53FE4FE491E150E231BE
:1007500008F0B3C0F0E08827EF54FC4F8F4F0C94A3
:10076000AF11C303CB03D003DA03E4035D04EE034C
:10077000F603FE03080412041C042B0435045D0474
:100780003F044904530484B5806884BDC7BDDF912C
:10079000CF911F91089584B5806284BDC8BDF7CF05
:1007A00080918000806880938000D0938900C093FE
:1007B0008800EDCF80918000806280938000D0938C
:1007C0008B00C0938A00E3CF809180008860809383
:1007D0008000D0938D00C0938C00D9CF8091B00061
:1007E00080688093B000C093B300D1CF8091B000F7
:1007F00080628093B000C093B400C9CF8091900014
:10080000806880939000D0939900C0939800BFCFE8
:1008100080919000806280939000D0939B00C09361
:100820009A00B5CF80919000886080939000D0931B
:100830009D00C0939C00ABCF8091A0008068809306
:10084000A0008091A0008F7B8093A000D093A9008E
:10085000C093A8009CCF8091A00080628093A000EC
:10086000D093AB00C093AA0092CF8091A000886083
:100870008093A000D093AD00C093AC0088CF80914E
:100880002001806880932001D0932901C093280122
:100890007ECF80912001806280932001D0932B0134
:1008A000C0932A0174CF8091200188608093200139
:1008B000D0932D01C0932C016ACFC038D1050CF024
:1008C0003ECF33CF3FB7F89480912003909121031E
:1008D000A0912203B091230326B5A89B05C02F3F0A
:1008E00019F00196A11DB11D3FBFBA2FA92F982F56
:1008F0008827BC01CD01620F711D811D911D42E051
:10090000660F771F881F991F4A95D1F708958F9218
:100910009F92AF92BF92CF92DF92EF92FF924B01E4
:100920005C010E9462046B017C010E9462046C19EC
:100930007D098E099F09683E734081059105A8F3E2
:1009400021E0821A9108A108B10888EEC80E83E060
:10095000D81EE11CF11C81149104A104B10429F7F3
:10096000FF90EF90DF90CF90BF90AF909F908F90CF
:10097000089520912603309127032817390771F431
:100980009091240380912503981741F0E09124036E
:10099000F0E0E152FD4F808190E008958FEF9FEFEE
:1009A00008950895EF92FF920F931F93CF93DF93D3
:1009B000DC015C96ED90FC905D97E114F10479F414
:1009C00081E090E013969C938E93129790E080E0E4
:1009D000DF91CF911F910F91FF90EF900895519665
:1009E000ED91FC91529750968C915097982F90953D
:1009F0000FB75E962C915E97122F127021FD6095B5
:100A0000F8942081112319F1282B2083E7012197E5
:100A1000F1F728E0462F50E0308160FF1AC0382BF4
:100A20003083E7012197F1F7BA0175956795215059
:100A300089F7112381F08081892380830FBF5C9621
:100A40008D919C910197F1F781E090E0C1CF29232E
:100A5000DCCF3923E5CF9081892BEFCF209126037E
:100A6000309127032817390771F4809125032091CD
:100A7000240390E0805C9F4F821B910960E470E04A
:100A80000E949B11089590E080E008952091260334
:100A90003091270328173907B9F4909124038091E6
:100AA0002503981789F0E0912403F0E0E152FD4F0F
:100AB00080812091240330E02F5F3F4F2F73332735
:100AC0002093240390E008958FEF9FEF08952FB7B0
:100AD000F89480913E0390913F03A0914003B09120
:100AE00041032FBF8093FF0390930004A093010460
:100AF000B093020487EF93E00E94460597FF26C05B
:100B00002FB7F89480913E0390913F03A09140034A
:100B1000B09141032FBF4091FF03509100046091B9
:100B2000010470910204841B950BA60BB70B409136
:100B3000FB035091FC036091FD037091FE03841749
:100B40009507A607B707B0F28FEF9FEF089590E0E3
:100B500080E00895CF92DF92EF92FF92CF93DF93E0
:100B6000EC01603282E07807CCF5653B710514F04A
:100B700064EB70E0898128E830E0281B310987FDAB
:100B80003395220F331F220F331F6901330FEE08F5
:100B9000FF088A8128E532E0281B310987FD33955B
:100BA000220F331F220F331F032E000C440B550B53
:100BB0002C193D094E095F09DB0177FF02C0B0E047
:100BC000A0E00E94561124EB30E040E050E00E948B
:100BD0002C11C20ED31EE41EF51EB601E881E033CF
:100BE00070F5298188E890E0821B910927FD939593
:100BF000880F991F880F991F681779077CF02A8141
:100C000088E592E0821B910927FD9395880F991F33
:100C1000880F991F681779070CF4CB010297880F8A
:100C2000991F4FB7F8942E2F30E0F901EE0FFF1FF8
:100C3000E20FF31FE15BFD4F928381834FBFDF9192
:100C4000CF91FF90EF90DF90CF9008951F93CF93B7
:100C5000DF93EC01162F8881803308F04EC061E0ED
:100C6000812F0E945A038881282F30E0F901EE0F6E
:100C7000FF1FE20FF31FE15BFD4F1F736081607C7C
:100C8000612B608319821A822CE0622F0E948F11DF
:100C9000829FB001112430E020E0AB01420F531FCE
:100CA000FA01EE0FFF1FE40FF51FE15BFD4F90818E
:100CB00096FD16C02F5F3F4F2C30310571F7813004
:100CC00009F51092800082E08093810010928500E7
:100CD00010928400B19A80916F00826080936F00BF
:100CE000E8818E2F90E0FC01EE0FFF1FE80FF91F47
:100CF000E15BFD4F8081806480838881DF91CF91AB
:100D00001F910895823061F41092900080939100B9
:100D1000109295001092940088BB80937100E0CFF0
:100D2000833069F41092A00082E08093A1001092B9
:100D3000A5001092A40089BB80937200D1CF8111CD
:100D4000CFCF1092200182E08093210110922501E3
:100D5000109224018ABB80937300C2CFAF92BF92DE
:100D6000CF92DF92EF92FF920F931F93CF93DF9377
:100D70006B017A01EC01C65BDD4F28813CE0389FB6
:100D80008001399F100D1124A0904E02B12C27FF35
:100D90001FC0FB011182108288818F5F8883888148
:100DA0009801280F311D87FD3A95F6012A153B055C
:100DB0001CF488818C30C4F1808191810496803448
:100DC0009C4908F473C0F60180819181049670C03B
:100DD00088819801280F311D87FD3A952A153B051A
:100DE000DCF68881A801480F511D87FD5A95FA014C
:100DF000EE0FFF1FE40FF51FE15BFD4F808186FFC3
:100E0000CBCF8881F801E80FF11D87FDFA95CF015E
:100E1000EE0FFF1FE80FF91FE15BFD4F808160E0DF
:100E20008F730E94CE02B8CF808191812881A80162
:100E3000420F511D27FD5A959A01FA01EE0FFF1F2F
:100E4000E20FF31FE15BFD4F21813281820F931F7F
:100E5000F7019183808388819801280F311D87FDD8
:100E60003A95F901EE0FFF1FE20FF31FE15BFD4F13
:100E7000808186FF22C08881080F111D87FD1A9589
:100E8000F801EE0FFF1FE00FF11FE15BFD4F8081C6
:100E900061E08F73DF91CF911F910F91FF90EF90E1
:100EA000DF90CF90BF90AF900C94CE0280E49CE98D
:100EB000F701918380838FEF8883DF91CF911F911A
:100EC0000F91FF90EF90DF90CF90BF90AF9008957B
:100ED000FC01448155818091E3039091E4038417E0
:100EE000950780F08091DF039091E003009751F027
:100EF000608171816115710529F00E94E11321E083
:100F0000892B09F020E0822F0895FC0180819181D6
:100F1000009711F00C9467120895FC018081918173
:100F2000009711F00C94F01060E070E0CB01089590
:100F30000F931F93CF93DF93EC01888199810097E2
:100F400059F02A813B812617370730F081E0DF9185
:100F5000CF911F910F9108958B016F5F7F4F0E947A
:100F6000F012009759F0998388831B830A832C81A0
:100F70003D81232B59F7FC011082E8CF80E0E7CFB9
:100F8000EF92FF920F931F93CF93DF93EC017B01BE
:100F90008A01BA010E94980728813981811114C001
:100FA0002115310519F0C9010E94671219821882B2
:100FB0001D821C821B821A82CE01DF91CF911F916C
:100FC0000F91FF90EF9008951D830C83B701C90125
:100FD0000E94DA13F1CFFC01118210821382128277
:100FE00015821482FB0101900020E9F73197AF01CF
:100FF000461B570B0C94C007CF92DF92EF92FF92E3
:101000000F931F93CF93DF93EC017B0182E0C82EF7
:10101000D12C6230710520F46B0192E0E92EF12CA5
:101020006AE372E0CE010E94EB070091E3031091A6
:10103000E403C016D10640F5E016F10608F4870176
:10104000E091DF03F091E003E00FF11FF0801082E8
:101050006091DF037091E0036C0D7D1D61157105DA
:10106000E9F0FB0101900020E9F73197AF01461B41
:10107000570BCE010E94C0078091DF039091E003DF
:10108000080F191FF801F082CE01DF91CF911F9157
:101090000F91FF90EF90DF90CF9008958881998114
:1010A000009711F00E946712198218821D821C821B
:1010B0001B821A82E1CF1F920F920FB60F9211245A
:1010C0000BB60F922F933F934F935F936F937F9342
:1010D0008F939F93AF93BF93EF93FF9382E493E03B
:1010E0000E940E02FF91EF91BF91AF919F918F915E
:1010F0007F916F915F914F913F912F910F900BBE18
:101100000F900FBE0F901F9018951F920F920FB661
:101110000F9211240BB60F922F938F939F93EF93FF
:10112000FF93E0915203F09153038081E0915803C3
:10113000F091590382FD1DC0908180915B038F5F08
:101140008F7320915C03821741F0E0915B03F0E024
:10115000EE5BFC4F958F80935B03FF91EF919F9126
:101160008F912F910F900BBE0F900FBE0F901F907D
:1011700018958081F2CF1F920F920FB60F92112413
:101180002F933F938F939F93AF93BF9380913E0391
:1011900090913F03A0914003B091410330911F0310
:1011A00023E0230F2D3758F50196A11DB11D209383
:1011B0001F0380933E0390933F03A0934003B0939B
:1011C00041038091200390912103A0912203B091CB
:1011D00023030196A11DB11D809320039093210349
:1011E000A0932203B0932303BF91AF919F918F915E
:1011F0003F912F910F900FBE0F901F90189526E8EA
:10120000230F0296A11DB11DD2CF1F920F920FB6D0
:101210000F9211240BB60F922F933F934F935F932E
:101220006F937F938F939F93AF93BF93EF93FF93AE
:10123000E0912603F0912703309749F0A685B78502
:101240008585968D91FF16C09C918923B1F4FF91FD
:10125000EF91BF91AF919F918F917F916F915F912E
:101260004F913F912F910F900BBE0F900FBE0F909B
:101270001F9018959C91892351F7A389B4899C915B
:101280008589809589238C93868997890197F1F7C1
:10129000608D718DA685B785558538E020E0CB013E
:1012A0000197F1F7822F90E095958795282F4C9123
:1012B000452309F02068315091F7868D81FD2095F6
:1012C0008091250390E001968F7399273091240334
:1012D000381799F0A0912503B0E0A152BD4F2C938F
:1012E00080932503828D938D0197F1F7A389B489AB
:1012F0008C919589892B8C93AACF868D8160868F5E
:10130000F1CF1F920F920FB60F9211240BB60F92CE
:101310002F933F934F935F936F937F938F939F93FD
:10132000AF93BF93EF93FF9348E251E064E271E023
:1013300090E080E00E94AE06FF91EF91BF91AF91E7
:101340009F918F917F916F915F914F913F912F91DD
:101350000F900BBE0F900FBE0F901F9018951F920D
:101360000F920FB60F9211240BB60F922F933F934B
:101370004F935F936F937F938F939F93AF93BF939D
:10138000EF93FF9348EA50E064EA70E083E090E076
:101390000E94AE06FF91EF91BF91AF919F918F9107
:1013A0007F916F915F914F913F912F910F900BBE65
:1013B0000F900FBE0F901F9018951F920F920FB6AF
:1013C0000F9211240BB60F922F933F934F935F937D
:1013D0006F937F938F939F93AF93BF93EF93FF93FD
:1013E00048E950E064E970E082E090E00E94AE06D7
:1013F000FF91EF91BF91AF919F918F917F916F91ED
:101400005F914F913F912F910F900BBE0F900FBEA8
:101410000F901F9018951F920F920FB60F921124E4
:101420000BB60F922F933F934F935F936F937F93DE
:101430008F939F93AF93BF93EF93FF9348E850E050
:1014400064E870E081E090E00E94AE06FF91EF91C9
:10145000BF91AF919F918F917F916F915F914F91CC
:101460003F912F910F900BBE0F900FBE0F901F90CA
:101470001895FC0190914E02903398F481E0890F09
:1014800080934E029083892F90E0FC01EE0FFF1FA6
:10149000E80FF91FE15BFD4F88EB9BE092838183AE
:1014A00008958FEF808308951092450310924403AE
:1014B00088EE93E0A0E0B0E080934603909347036A
:1014C000A0934803B09349032CE032E030934303E8
:1014D0002093420325EC30E030934F0320934E03DA
:1014E00024EC30E0309351032093500320EC30E0A3
:1014F000309353032093520321EC30E03093550393
:101500002093540322EC30E030935703209356038A
:1015100026EC30E0309359032093580310925B037C
:1015200010925C0310925D0310925E031092FA0316
:101530001092F9038093FB039093FC03A093FD03A7
:10154000B093FE038EE192E09093F8038093F7034B
:1015500010920E0410920D041092100410920F04B9
:101560001092120410921104109214041092130499
:10157000609115046E7F6D7F6093150466956170B0
:1015800081E0682786E30E94CE0261E086E30E9444
:101590005A03E8EBF2E0E491E0930704E2E7F2E0BB
:1015A000E491F0E0EE0FFF1FEE5DFD4F8591949109
:1015B000909309048093080460E087E30E945A0333
:1015C0008091150481FD04C061E087E30E94CE0292
:1015D00087E380930304E9EBF2E0E491E0930404F1
:1015E000E3E7F2E0E491F0E0EE0FFF1FE85FFD4F6C
:1015F00085919491909306048093050484EF93E081
:101600000E94390A81EF93E00E94390A8EEE93E03E
:101610000E94390A8BEE93E00E94390A88EE93E02B
:101620000E94390A85EE93E00E94390A6AE372E06B
:101630008FED93E00C94EB07CF93DF9300D000D0B5
:101640001F921F92CDB7DEB7789484B5826084BDB7
:1016500084B5816084BD85B5826085BD85B58160B6
:1016600085BD80916E00816080936E001092810034
:1016700080918100826080938100809181008160EF
:1016800080938100809180008160809380008091B0
:10169000B10084608093B1008091B000816080933C
:1016A000B0008091910082608093910080919100C0
:1016B0008160809391008091900081608093900080
:1016C0008091A10082608093A1008091A10081603F
:1016D0008093A1008091A00081608093A000809100
:1016E000210182608093210180912101816080939A
:1016F00021018091200181608093200180917A00F6
:10170000846080937A0080917A00826080937A006E
:1017100080917A00816080937A0080917A0080685D
:1017200080937A001092C10050E040E066E072E0E1
:101730008FED93E00E94C0078EEB90E090933D0305
:1017400080933C038AE590E09093290380932803DB
:1017500086E990E090932B0380932A0383E290E044
:1017600090932D0380932C038CE890E090932F03AB
:1017700080932E0385E590E09093310380933003AE
:1017800080E590E0909333038093320361E083E03F
:101790000E945A0361E08BE00E945A0361E082E0FC
:1017A0000E945A0361E084E00E945A0361E087E0EE
:1017B0000E945A0361E088E00E945A036CE270E0E4
:1017C00084EF93E00E9426066AE570E084EF93E0E0
:1017D0000E94AA056DE270E081EF93E00E94260668
:1017E00066E970E081EF93E00E94AA056EE270E086
:1017F0008EEE93E00E94260663E270E08EEE93E0A8
:101800000E94AA0565E070E08BEE93E00E94260638
:101810006CE870E08BEE93E00E94AA056DE070E04A
:1018200088EE93E00E94260665E570E088EE93E07E
:101830000E94AA056AE070E085EE93E00E94260609
:1018400060E570E085EE93E00E94AA05E091520306
:10185000F091530382E08083E0914E03F0914F03B7
:101860001082E0915003F09151038FEC808310922D
:101870005A03E0915603F091570386E08083E0918C
:101880005403F0915503808180618083E09154037B
:10189000F0915503808188608083E0915403F0913A
:1018A0005503808180688083E0915403F091550353
:1018B00080818F7D80831092120410921104109207
:1018C000100410920F0410920E0410920D048DE972
:1018D00091E090931404809313048091030496EF95
:1018E000980F943048F02EEC280F243028F022EC8A
:1018F000280F283008F061C02DEB30E030930E0443
:1019000020930D042BE931E03093100420930F0451
:101910002CE231E03093120420931104943050F003
:101920002EEC280F243030F022EC280FF0E0E0E01D
:10193000283010F4E8E6F0E02081943028F032EC12
:10194000380F383008F4B0C031E0232B943048F021
:101950009EEC980F943028F08E53F0E0E0E0883051
:1019600010F4E8E6F0E020832091030436EF320F14
:10197000343008F49BC08EEC820F843008F496C09B
:1019800082EC820F883008F094C08DE690E090934E
:101990000B0480930A04343008F08EC02650330BB9
:1019A00081E001C0880F2A95EAF780930C048091AA
:1019B0001304909114040197F1F780911104909110
:1019C0001204892B49F1E0912603F091270383E06B
:1019D000E73FF80709F1309739F0A389B4899C9162
:1019E0008589809589238C93809115048E7F8093BF
:1019F0001504109225031092240387EF93E090932F
:101A0000270380932603E0910A04F0910B04808160
:101A100090910C04892B808381E090E0A0E0B0E0FD
:101A20008093FB039093FC03A093FD03B093FE030C
:101A30006AE070E080E090E00E94870484E6882EEF
:101A4000912C96E9E92EF12CCC24CA94D12C87EF65
:101A500093E00E942E05181619060CF01FC36AE3C6
:101A600072E0CE0101960E94EB070E94670597FD88
:101A700038C08F8318860D811E810F5F1F4FB801FC
:101A8000CE0101960E949807882379F329813A8133
:101A90008D819E81BE01695F7F4F820F931F0E94DF
:101AA000DA131E830D83E1CF34E04FCF8BE690E055
:101AB0006ECF90E080E06BCF88E0223309F475CFE1
:101AC00084E0233309F471CF82E0243309F46DCF2D
:101AD00082EC820F883018F42E53330B61CF81E0F3
:101AE00064CF8091DF039091E003009709F4DBC29B
:101AF00069817A816115710509F4D3C24091E103CE
:101B00005091E2032D813E814217530708F4C9C268
:101B10000E94DA138D819E819093E4038093E30306
:101B20001E821D82CE0101960E9485076CE272E042
:101B3000CE0101960E94EB07CE0101960E94680734
:101B4000182FCE0101960E948507112321F0D09213
:101B50003D03C0923C036EE272E0CE0101960E940A
:101B6000EB07CE0101960E946807182FCE0101965F
:101B70000E948507112321F0F0923D03E0923C037F
:101B800060E372E0CE0101960E94EB07CE01019660
:101B90000E946807182FCE0101960E948507112325
:101BA00021F090923D0380923C0362E372E0CE010B
:101BB00001960E94EB07CE0101960E946807182F3C
:101BC000CE0101960E948507112311F100913C037B
:101BD00010913D03B80183E00E948B03B8018BE0B4
:101BE0000E948B0361E082E00E94CE0260E084E00C
:101BF0000E94CE0261E087E00E94CE0260E088E0B1
:101C00000E94CE0264E170E080E090E00E948704D0
:101C100068E472E0CE0101960E94EB07CE010196C6
:101C20000E946807182FCE0101960E948507112394
:101C300011F100913C0310913D03B80183E00E9433
:101C40008B03B8018BE00E948B0361E082E00E946D
:101C5000CE0260E084E00E94CE0260E087E00E9455
:101C6000CE0261E088E00E94CE0264E170E080E094
:101C700090E00E9487046FE372E0CE0101960E941B
:101C8000EB07CE0101960E946807182FCE0101963E
:101C90000E948507112311F100913C0310913D032F
:101CA000B80183E00E948B03B8018BE00E948B0394
:101CB00060E082E00E94CE0261E084E00E94CE02F9
:101CC00061E087E00E94CE0260E088E00E94CE02E0
:101CD00064E170E080E090E00E94870464E372E0D9
:101CE000CE0101960E94EB07CE0101960E94680783
:101CF000182FCE0101960E948507112311F1009142
:101D00003C0310913D03B80183E00E948B03B801AE
:101D10008BE00E948B0360E082E00E94CE0261E0D3
:101D200084E00E94CE0260E087E00E94CE0261E083
:101D300088E00E94CE0264E170E080E090E00E94C2
:101D4000870466E372E0CE0101960E94EB07CE01A4
:101D500001960E946807182FCE0101960E94850700
:101D6000112351F070E060E083E00E948B0370E08B
:101D700060E08BE00E948B0368E372E0CE01019685
:101D80000E94EB07CE0101960E946807182FCE0132
:101D900001960E948507112391F16091E3037091F0
:101DA000E403CE0101960E94FC07CE0101960E9439
:101DB0008D072B015B017093330360933203009115
:101DC000280310912903061717070CF083C1B801E7
:101DD00084EF93E00E94AA0564E170E080E090E067
:101DE0000E9487040F5F1F4FA016B10684F7509220
:101DF000290340922803CE0101960E9485076BE3D8
:101E000072E0CE0101960E94EB07CE0101960E947E
:101E10006807182FCE0101960E948507112391F1C2
:101E20006091E3037091E403CE0101960E94FC07E8
:101E3000CE0101960E948D072B015B017093350343
:101E40006093340300912A0310912B0306171707A0
:101E50000CF051C1B80181EF93E00E94AA0564E142
:101E600070E080E090E00E9487040F5F1F4FA01693
:101E7000B10684F750922B0340922A03CE010196BB
:101E80000E9485076EE372E0CE0101960E94EB0787
:101E9000CE0101960E946807182FCE0101960E947C
:101EA0008507112391F16091E3037091E403CE0162
:101EB00001960E94FC07CE0101960E948D072B011E
:101EC0005B01709337036093360300912C031091EC
:101ED0002D03061717070CF01FC1B8018EEE93E013
:101EE0000E94AA0564E170E080E090E00E9487040F
:101EF0000F5F1F4FA016B10684F750922D0340923A
:101F00002C03CE0101960E94850761E472E0CE01A8
:101F100001960E94EB07CE0101960E946807182FD8
:101F2000CE0101960E948507112391F16091E30390
:101F30007091E403CE0101960E94FC07CE01019648
:101F40000E948D072B015B01709339036093380366
:101F500000912E0310912F03061717070CF0EDC008
:101F6000B8018BEE93E00E94AA0564E170E080E086
:101F700090E00E9487040F5F1F4FA016B10684F700
:101F800050922F0340922E03CE0101960E948507A6
:101F900064E472E0CE0101960E94EB07CE01019647
:101FA0000E946807182FCE0101960E948507112311
:101FB00091F16091E3037091E403CE0101960E94D8
:101FC000FC07CE0101960E948D072B015B017093E7
:101FD0003B0360933A0300913003109131030617DD
:101FE00017070CF0BBC0B80188EE93E00E94AA0569
:101FF00064E170E080E090E00E9487040F5F1F4F73
:10200000A016B10684F75092310340923003CE01FE
:1020100001960E94850767E472E0CE0101960E9456
:10202000EB07CE0101960E946807182FCE0101969A
:102030000E948507112391F16091E3037091E403FD
:10204000CE0101960E94FC07CE0101960E948D07E9
:102050002B015B0170933D0360933C0300913203BD
:1020600010913303061717070CF089C0B80185EEED
:1020700093E00E94AA0564E170E080E090E00E9495
:1020800087040F5F1F4FA016B10684F750923303E9
:1020900040923203CE0101960E9485070E949D0264
:1020A000D6CC0E94671289819A819093E003809335
:1020B000DF038B819C819093E2038093E1038D8108
:1020C0009E819093E4038093E3031A8219821C8219
:1020D0001B8226CDB80184EF93E00E94AA0564E13B
:1020E00070E080E090E00E948704015011090A1519
:1020F0001B0584F77CCEB80181EF93E00E94AA050E
:1021000064E170E080E090E00E94870401501109D2
:102110000A151B0584F7AECEB8018EEE93E00E943F
:10212000AA0564E170E080E090E00E94870401501D
:1021300011090A151B0584F7E0CEB8018BEE93E078
:102140000E94AA0564E170E080E090E00E948704AC
:10215000015011090A151B0584F712CFB80188EE4A
:1021600093E00E94AA0564E170E080E090E00E94A4
:102170008704015011090A151B0584F744CFB801E3
:1021800085EE93E00E94AA0564E170E080E090E0B3
:102190000E948704015011090A151B0584F776CFA8
:1021A0008FED93E00E9485078EE192E09093F80313
:1021B0008093F7038091260390912703875F9340D4
:1021C00071F4E0910A04F0910B04908180910C0469
:1021D0008095892380831092270310922603089507
:1021E0001F93FC0199278827BC01E89411911032B4
:1021F000E9F3193010F01E30C8F31B3251F01D32D4
:1022000049F4689406C00E941711610F711D811D69
:10221000911D119110531A30B0F33EF490958095B2
:10222000709561957F4F8F4F9F4F1F910895592F44
:10223000482F372F262F660F771F881F991F660F8D
:10224000771F881F991F620F731F841F951F660FCA
:10225000771F881F991F0895052E97FB1EF4009481
:102260000E94431157FD07D00E945E1107FC03D066
:102270004EF40C94431150954095309521953F4F65
:102280004F4F5F4F089590958095709561957F4F62
:102290008F4F9F4F08950E948011A59F900DB49F6E
:1022A000900DA49F800D911D11240895B7FF0C94EB
:1022B0004B110E944B11821B930B0895A1E21A2E21
:1022C000AA1BBB1BFD010DC0AA1FBB1FEE1FFF1FDA
:1022D000A217B307E407F50720F0A21BB30BE40B2A
:1022E000F50B661F771F881F991F1A9469F7609571
:1022F0007095809590959B01AC01BD01CF0108952B
:10230000A29FB001B39FC001A39F700D811D112436
:10231000911DB29F700D811D1124911D0895991B6F
:1023200079E004C0991F961708F0961B881F7A95CC
:10233000C9F78095089597FB072E16F4009407D0EF
:1023400077FD09D00E94B71107FC05D03EF49095A7
:1023500081959F4F0895709561957F4F0895EE0F79
:10236000FF1F881F8BBF0790F691E02D1994AA1BC1
:10237000BB1B51E107C0AA1FBB1FA617B70710F070
:10238000A61BB70B881F991F5A95A9F780959095A2
:10239000BC01CD0108950F931F93CF93DF9382303B
:1023A000910510F482E090E0E0911804F091190496
:1023B00030E020E0B0E0A0E0309799F4211531053D
:1023C00009F44AC0281B390B24303105D8F58A811D
:1023D0009B816115710589F1FB0193838283FE0165
:1023E00011C0408151810281138148175907E0F0E3
:1023F0004817590799F4109761F012960C931297A9
:1024000013961C933296CF01DF91CF911F910F91BC
:1024100008950093180410931904F4CF2115310581
:1024200051F04217530738F0A901DB019A01BD01B1
:10243000DF01F801C1CFEF01F9CF90931904809328
:102440001804CDCFFE01E20FF31F81939193225028
:10245000310939832883D7CF20911604309117048E
:10246000232B41F420910202309103023093170490
:1024700020931604209100023091010221153105AC
:1024800041F42DB73EB74091040250910502241B40
:10249000350BE0911604F0911704E217F307A0F44E
:1024A0002E1B3F0B2817390778F0AC014E5F5F4FAA
:1024B0002417350748F04E0F5F1F509317044093C1
:1024C0001604819391939FCFF0E0E0E09CCFCF93EF
:1024D000DF930097E9F0FC01329713821282A091FA
:1024E0001804B0911904ED0130E020E01097A1F438
:1024F00020813181820F931F20911604309117049F
:102500002817390709F061C0F0931704E093160407
:10251000DF91CF910895EA01CE17DF07E8F54A81F0
:102520005B819E0141155105B1F7E901FB83EA8307
:1025300049915991C40FD51FEC17FD0761F48081B3
:1025400091810296840F951FE90199838883828186
:1025500093819B838A83F0E0E0E012968D919C91B9
:1025600013970097B9F52D913C911197CD010296E3
:10257000820F931F209116043091170428173907F2
:1025800039F6309751F51092190410921804B0934F
:102590001704A0931604BCCFD383C283408151811A
:1025A000840F951FC817D90761F44E5F5F4F88816C
:1025B0009981480F591F518340838A819B8193835E
:1025C00082832115310509F0B0CFF0931904E0930F
:1025D00018049ECFFD01DC01C0CF13821282D7CF39
:1025E0004F925F926F927F928F929F92AF92BF9223
:1025F000CF92DF92EF92FF920F931F93CF93DF93CF
:102600008C01009799F4CB01DF91CF911F910F912D
:10261000FF90EF90DF90CF90BF90AF909F908F9002
:102620007F906F905F904F900C94CB11FC01E60F60
:10263000F71F9C0122503109E217F30708F4AEC0DE
:10264000D901CD91DC911197C617D70720F1C5307C
:10265000D10578F0CE0104978617970750F0C61B76
:10266000D70B2297C193D1936D937C93CF010E9496
:102670006712C801DF91CF911F910F91FF90EF90EA
:10268000DF90CF90BF90AF909F908F907F906F9092
:102690005F904F9008955B01AC1ABD0A4C018C0EFF
:1026A0009D1EA0911804B0911904512C412CF12CBD
:1026B000E12C109731F5809116049091170488153C
:1026C000990509F05CC04616570608F058C080917D
:1026D000000290910102009741F48DB79EB740919E
:1026E000040250910502841B950BE817F90708F0C6
:1026F00055C0F0931704E0931604F90171836083C9
:10270000B8CF8D919C91119712966C901297139659
:102710007C901397A815B90559F56C0142E0C40ED9
:10272000D11CCA14DB0420F1AC014A195B09DA019F
:102730001296159780F06282738251834083D9018B
:102740006D937C93E114F10471F0D7011396FC931F
:10275000EE9312978ECF22968C0F9D1FF9019183D5
:102760008083F301EFCFF0931904E093180481CF35
:102770004816590608F42C017D01D3019ACFCB01EC
:102780000E94CB117C01009749F0AE01B8010E9474
:10279000D113C8010E94671287016BCF10E000E0DF
:1027A00068CFFB01DC0102C001900D924150504006
:1027B000D8F70895FB01DC0101900D920020E1F7AC
:1027C0000895FB01DC014150504030F08D910190A3
:1027D000801919F40020B9F7881B990B089511E0AE
:1027E000C5E6D1E000E006C0802FFE010E94AF11D7
:1027F0002196011DC636D10780E00807A9F7F89495
:02280000FFCF08
:1028020000001A04800000000000000030029A015B
:10281200C7017D02F801D601EA0100000000D204DE
:102822009A01A705D1042E054605B9047800640073
:102832006E00660062007300776100736800656C69
:0A28420000777200777000677200E3
:00000001FF
