:100000000C9461000C9473000C9473000C947300B6
:100010000C9473000C9473000C9473000C94730094
:100020000C9473000C9473000C9473000C94730084
:100030000C9473000C9473000C9473000C94730074
:100040000C94A2010C9473000C9473000C94730034
:100050000C9473000C9473000C9473000C94730054
:100060000C9473000C94730000000000240027001F
:100070002A0000000000250028002B0000000008D6
:10008000000201000003040700000000000000005F
:1000900000000000230026002900040404040404D6
:1000A0000404020202020202030303030303010227
:1000B00004081020408001020408102001020408F6
:1000C000102011241FBECFEFD8E0DEBFCDBF21E04E
:1000D000A0E0B1E001C01D92AD30B207E1F70E948F
:1000E00031020C9497040C94000090E0FC01E45859
:1000F000FF4F2491FC01E255FF4F3491FC01E6567D
:10010000FF4FE491EE23C9F0222339F0233001F1AF
:10011000A8F4213019F1223029F1F0E0EE0FFF1F91
:10012000EE58FF4FA591B4918FB7F894EC916111FF
:1001300026C030953E233C938FBF08952730A9F009
:100140002830C9F0243049F7809180008F7D03C0AA
:10015000809180008F7780938000DFCF84B58F7788
:1001600084BDDBCF84B58F7DFBCF8091B0008F77CE
:100170008093B000D2CF8091B0008F7DF9CF3E2B1D
:10018000DACFCF93DF9390E0FC01E255FF4F24914B
:1001900086569F4FFC0184918823D1F090E0880F10
:1001A000991FFC01E859FF4FA591B491FC01EE584D
:1001B000FF4FC591D49161110EC09FB7F8948C91F7
:1001C000E22FE0958E238C932881E223E8839FBF62
:1001D000DF91CF9108958FB7F894EC91E22BEC93D7
:1001E0008FBFF6CF1F93CF93DF93182FEB0161E002
:1001F0000E94C100209739F460E0812FDF91CF91F8
:100200001F910C947500E12FF0E0E458FF4FE4914A
:10021000E33039F148F4E130B9F0E230E9F0C038C8
:10022000D10554F361E0E9CFE73029F1E83059F125
:10023000E430A9F780918000806280938000D093A1
:100240008B00C0938A0004C084B5806884BDC7BD9C
:10025000DF91CF911F91089584B5806284BDC8BDA0
:10026000F7CF80918000806880938000D0938900D0
:10027000C0938800EDCF8091B00080688093B0007B
:10028000C093B300E5CF8091B00080628093B0004E
:10029000C093B400DDCF3FB7F894809105019091F1
:1002A0000601A0910701B091080126B5A89B05C0E1
:1002B0002F3F19F00196A11DB11D3FBFBA2FA92FE5
:1002C000982F8827BC01CD01620F711D811D911DE2
:1002D00042E0660F771F881F991F4A95D1F708954E
:1002E0008F929F92AF92BF92CF92DF92EF92FF9246
:1002F0004B015C010E944B016B017C010E944B0190
:100300006C197D098E099F09683E7340810591052E
:10031000A8F321E0821A9108A108B10888EEC80E5E
:1003200083E0D81EE11CF11C81149104A104B104E6
:1003300029F7FF90EF90DF90CF90BF90AF909F9004
:100340008F9008951F920F920FB60F9211242F9342
:100350003F938F939F93AF93BF93809101019091AF
:100360000201A0910301B09104013091000123E04A
:10037000230F2D3758F50196A11DB11D20930001C3
:100380008093010190930201A0930301B0930401B3
:100390008091050190910601A0910701B09108019B
:1003A0000196A11DB11D8093050190930601A093B4
:1003B0000701B0930801BF91AF919F918F913F9139
:1003C0002F910F900FBE0F901F90189526E8230FC6
:1003D0000296A11DB11DD2CFCF92DF92EF92FF9274
:1003E0000F931F93E82FF92F05C001501109210920
:1003F000310961F1908196239417B9F305C001503A
:1004000011092109310911F1908196239413F7CF35
:10041000C12CD12CE12CF12C0AC08FEFC81AD80ABC
:10042000E80AF80A0C151D052E053F0579F08081B4
:100430008623841791F36C2D7D2D8E2D9F2D1F917A
:100440000F91FF90EF90DF90CF90089560E070E003
:1004500080E090E01F910F91FF90EF90DF90CF90A0
:100460000895789484B5826084BD84B5816084BD2C
:1004700085B5826085BD85B5816085BD80916E0042
:10048000816080936E001092810080918100826073
:1004900080938100809181008160809381008091B0
:1004A00080008160809380008091B100846080939F
:1004B000B1008091B00081608093B00080917A009B
:1004C000846080937A0080917A00826080937A00C1
:1004D00080917A00816080937A0080917A008068B0
:1004E00080937A001092C1001092090110920A01C3
:1004F00010920B0110920C01C2E061E08C2F0E945F
:10050000C100CF5FC930C9F760E089E00E94C10037
:10051000C3E0D0E043E2E42EF12C57EBC52E50E0CF
:10052000D52E63EAA62E60E0B62E70E0872E70E02E
:10053000972E60E088E00E94C100CE010197F1F79C
:1005400061E088E00E94C100C7010197F1F760E017
:1005500088E00E94C100F6016491F5018491E82FC2
:10056000F0E0EE0FFF1FE057FF4F8591949100E4FC
:1005700012E42FE030E0462F0E94EC016115710576
:100580008105910529F06F5F7F4F8F4F9F4F9F70BF
:1005900095958795779567950E949E0328E23EE79B
:1005A0004CE05DE30E9402040E946603609309012F
:1005B00070930A0180930B0190930C0164317105D3
:1005C000810591050CF067C060E082E00E94750033
:1005D00060E084E00E94750060E087E00E947500A2
:1005E00060E086E00E94750070E060E083E00E94B9
:1005F000F20070E060E085E00E94F20068EC70E0DC
:1006000080E090E00E94700160E082E00E9475004E
:1006100061E084E00E94750060E087E00E94750060
:1006200061E086E00E94750066E970E083E00E9468
:10063000F20066E970E085E00E94F20064EF71E08C
:1006400080E090E00E94700160E082E00E9475000E
:1006500060E084E00E94750061E087E00E94750020
:1006600060E086E00E94750070E060E083E00E9438
:10067000F20066E970E085E00E94F20064EF71E04C
:1006800080E090E00E9470018114910409F451CF40
:100690000E9400004ECF61E082E00E94750060E0A1
:1006A00084E00E94750061E087E00E94750060E0D0
:1006B00086E00E94750066E970E083E00E94F20027
:1006C00066E970E085E00E94F200DECF0E946D03D3
:1006D0006894B1110C94FC0308950E94E10388F022
:1006E0009F5798F0B92F9927B751B0F0E1F0660FF6
:1006F000771F881F991F1AF0BA95C9F714C0B13037
:1007000091F00E94FB03B1E008950C94FB03672F66
:10071000782F8827B85F39F0B93FCCF38695779565
:100720006795B395D9F73EF490958095709561954E
:100730007F4F8F4F9F4F0895E89409C097FB3EF479
:1007400090958095709561957F4F8F4F9F4F99231E
:10075000A9F0F92F96E9BB279395F695879577959C
:100760006795B795F111F8CFFAF4BB0F11F460FF5C
:100770001BC06F5F7F4F8F4F9F4F16C0882311F0B4
:1007800096E911C0772321F09EE8872F762F05C0C8
:10079000662371F096E8862F70E060E02AF09A9563
:1007A000660F771F881FDAF7880F9695879597F958
:1007B000089557FD9058440F551F59F05F3F71F051
:1007C0004795880F97FB991F61F09F3F79F08795B8
:1007D0000895121613061406551FF2CF4695F1DF41
:1007E00008C0161617061806991FF1CF86957105D1
:1007F000610508940895E894BB2766277727CB0105
:1008000097F908950E9415040C9486040E947804B8
:1008100038F00E947F0420F0952311F00C946F04AF
:100820000C94750411240C94FC030E94D90370F3FA
:10083000959FC1F3950F50E0551F629FF001729F85
:10084000BB27F00DB11D639FAA27F00DB11DAA1F94
:10085000649F6627B00DA11D661F829F2227B00DE1
:10086000A11D621F739FB00DA11D621F839FA00D6C
:10087000611D221F749F3327A00D611D231F849FBC
:10088000600D211D822F762F6A2F11249F57504013
:100890009AF0F1F088234AF0EE0FFF1FBB1F661F8E
:1008A000771F881F91505040A9F79E3F510580F057
:1008B0000C946F040C94FC035F3FE4F3983ED4F374
:1008C000869577956795B795F795E7959F5FC1F7FB
:1008D000FE2B880F911D9695879597F9089597F9A6
:1008E0009F6780E870E060E008959FEF80EC0895D6
:1008F00000240A94161617061806090608950024FF
:100900000A9412161306140605060895092E039478
:10091000000C11F4882352F0BB0F40F4BF2B11F4EC
:1009200060FF04C06F5F7F4F8F4F9F4F0895F89413
:02093000FFCFF7
:00000001FF
